:020000040800F2
:1000000000000220C5DE0008B1A20008B3A200086B
:10001000B5A20008B7A20008B9A2000800000000BD
:1000200000000000000000000000000051D60008A1
:10003000BBA2000800000000F1D60008BDA2000825
:1000400015DF000815DF000815DF000815DF0008C0
:1000500015DF000815DF000815DF000815DF0008B0
:1000600015DF000815DF000815DF000815DF0008A0
:1000700015DF000815DF000815DF000815DF000890
:1000800015DF000815DF000815DF000815DF000880
:1000900015DF000815DF000815DF000815DF000870
:1000A00015DF000815DF000815DF000815DF000860
:1000B00015DF000815DF000815DF000815DF000850
:1000C00015DF000815DF000815DF000815DF000840
:1000D00015DF000815DF000815DF000815DF000830
:1000E00015DF000815DF000815DF000815DF000820
:1000F00015DF000815DF000815DF000815DF000810
:1001000015DF000815DF000815DF000815DF0008FF
:1001100015DF000815DF000815DF000815DF0008EF
:1001200015DF0008D5A2000815DF000815DF00085C
:1001300015DF0008000000000000000015DF0008C7
:1001400015DF000815DF000815DF000815DF0008BF
:1001500015DF0008E5A2000815DF0008F5A2000879
:1001600015DF000815DF000815DF000815DF00089F
:1001700015DF000815DF0008000000000000000087
:0801800015DF000815DF00087F
:1001C0000348044B834202D0034B03B118477047E6
:1001D0001801002018010020000000000548064911
:1001E0000B1AD90F01EBA301491002D0034B03B145
:1001F0001847704718010020180100200000000077
:1002000010B5064C237843B9FFF7DAFF044B13B15E
:100210000448AFF300800123237010BD18010020B3
:1002200000000000B839010808B5044B1BB10449AF
:100230000448AFF30080BDE80840CFE700000000AD
:100240001C010020B8390108014B1868704700BF35
:100250000000002070B50D4E0D4D761BB61006D077
:10026000002455F8043B01349847A642F9D1094EC1
:10027000094D761B13F0A0FBB61006D0002455F8EC
:10028000043B01349847A642F9D170BDE44D010802
:10029000E44D0108EC4D0108E44D0108844641EAB3
:1002A000000313F003036DD1403A41D351F8043BEE
:1002B00040F8043B51F8043B40F8043B51F8043B40
:1002C00040F8043B51F8043B40F8043B51F8043B30
:1002D00040F8043B51F8043B40F8043B51F8043B20
:1002E00040F8043B51F8043B40F8043B51F8043B10
:1002F00040F8043B51F8043B40F8043B51F8043B00
:1003000040F8043B51F8043B40F8043B51F8043BEF
:1003100040F8043B51F8043B40F8043B51F8043BDF
:1003200040F8043B51F8043B40F8043B403ABDD24E
:10033000303211D351F8043B40F8043B51F8043BF0
:1003400040F8043B51F8043B40F8043B51F8043BAF
:1003500040F8043B103AEDD20C3205D351F8043B7F
:1003600040F8043B043AF9D2043208D0D2071CBF4B
:1003700011F8013B00F8013B01D30B880380604674
:10038000704700BF082A13D38B078DD010F00303EA
:100390008AD0C3F10403D21ADB071CBF11F8013B5A
:1003A00000F8013B80D331F8023B20F8023B7BE7A9
:1003B000043AD9D3013A11F8013B00F8013BF9D2D4
:1003C0000B7803704B7843708B788370604670476E
:1003D000830730B548D0541E002A3FD0CAB2034626
:1003E00001E0013C3AD303F8012B9D07F9D1032C1E
:1003F0002DD9CDB245EA05250F2C45EA054536D95C
:10040000A4F1100222F00F0C03F1200EE6444FEA93
:10041000121C03F1100242E9045542E90255103260
:100420007245F8D10CF1010214F00C0F03EB02122B
:1004300004F00F0C13D0ACF1040323F003030433D6
:10044000134442F8045B9342FBD10CF003042CB13B
:10045000CAB21C4403F8012B9C42FBD130BD644658
:100460001346002CF4D1F9E703461446BFE71A46B9
:10047000A446E0E70EB410B5044683B008B1836922
:100480005BB106ABA168059A0193204600F020FA03
:1004900003B0BDE8104003B0704700F017F9F0E773
:1004A0000FB410B50A4B1C6882B00CB1A3695BB1E4
:1004B00005ABA168049A0193204600F009FA02B046
:1004C000BDE8104004B07047204600F0FFF8EFE7A9
:1004D0000000002000207047014900F037B900BF3C
:1004E000311300080020704770B568224D1E02FBD2
:1004F00005F50E4605F1740100F04CF9044640B1D3
:1005000000210C30C4E90016A06005F16802FFF775
:100510005FFF204670BD00BF274B2DE9F0411E68EC
:10052000B369074653B348364FF00408D6E901349F
:10053000013B04D51EE05A1C04F168041AD0B4F93A
:100540000C50013B002DF6D11C4B6566C4E90055EB
:10055000C4E90253C4E90455A5610822294604F1FF
:100560005C00FFF735FFC4E90D55C4E9125520467C
:10057000BDE8F08135682DB12E46D7E7304600F052
:100580001FF8D0E74FF4D671384600F003F904465F
:1005900068B10560C0F804800C302946A06025468B
:1005A0004FF4D072FFF714FF34602E46BEE70C23E1
:1005B00030603B60DBE700BFD03901080100FFFF7E
:1005C0002DE9F84F344B35491A68816290424FF05B
:1005D0000003C0E91233036504BF012383610546AC
:1005E000FFF79AFF68602846FFF796FFA860284645
:1005F000FFF792FF6F68E86000240423C7E9024315
:1006000008222146C7E90044C7E904447C66BC616E
:1006100007F15C00FFF7DCFEDFF88CB0AE68DFF8B6
:100620008CA0DFF88C90DFF88C801D4BC7F828A0D9
:10063000C7E9087BC7F82C90C7F830800822F36020
:10064000C6E90044C6E904447466B460B461214656
:1006500006F15C00FFF7BCFEC6E9086BC6E90AA913
:10066000C6F83080EE680F4BF360C6E90044C6E977
:1006700004447466B460B4612146082206F15C004B
:10068000FFF7A6FE0123C6E9086BC6E90B98C6F87A
:1006900028A0AB61BDE8F88FD0390108D904000863
:1006A0000900010012000200710F0008990F0008F4
:1006B000D90F0008F90F0008024B0349186800F031
:1006C00045B800BFD039010831130008836903B968
:1006D00076E77047704700BF704700BF704700BFA4
:1006E000704700BF024B0349186800F00FB800BF05
:1006F00000000020D5040008024B0349186800F0F0
:1007000005B800BF00000020E50400082DE9F04115
:10071000884600F148070026D7E90154013D0FD46F
:10072000A389012B05F1FF3506D9B4F90E30013349
:10073000204601D0C04706436B1C04F16804EFD18A
:100740003F68002FE8D13046BDE8F0812DE9F8433D
:100750000746884600F148064FF00009D6E90154E3
:10076000013D11D4A389012B05F1FF3508D9B4F956
:100770000E300133214603D03846C04749EA00090C
:100780006B1C04F16804EDD13668002EE6D14846B2
:10079000BDE8F883F8B5CD1C25F0030508350C2D10
:1007A00038BF0C25002D064623DBA94221D8254F52
:1007B00001F012F93A6822B3144603E06368224656
:1007C000FBB11C4623685B1BF8D40B2B15D8636860
:1007D00094420CBF3B605360304601F0FFF804F1D7
:1007E0000B00231D20F00700C21A01D01B1AA350D2
:1007F000F8BD0C2333600020F8BD23601C44256045
:10080000EAE77968C9B12946304600F09FFB431CEE
:100810000CD0C41C24F00304A04205D0211A304699
:1008200000F094FB013001D02560D5E70C23304661
:10083000336001F0D3F80020F8BD304600F086FBAD
:100840007860E0E7340100209368013B002B93605F
:1008500011DA10B49469A34209DB0A2907D013689E
:10086000581C1060197008465DF8044B70475DF81D
:10087000044B00F0C5BB1368581C10601970084683
:10088000704700BF9BB1F8B5134406460F46541E8F
:100890005D1E01E0AC4208D014F8011F3A46304614
:1008A000FFF7D2FF431CF5D1F8BD0020F8BD0020B2
:1008B000704700BF936810B5144613B953601846CB
:1008C00010BD00F09FFD0023C4E9013310BD00BF3F
:1008D0002DE9F04F88469FB015461C46814618B159
:1008E0008369002B00F0A280924B984500F0A48011
:1008F000914B984500F0B180904B984508BFD9F8CE
:100900000C80B8F80C30180740F19D80D8F81030F2
:10091000002B00F0988000230B932978884E0594D3
:1009200020238DF8313030238DF832300127002913
:1009300074D02C460B4604E014F8013F002B00F065
:100940008F80252BF8D1B4EB050B40F08C802378F9
:10095000002B63D000234FF0FF32CDE9072306932D
:1009600009938DF85B301C93013404E0069A07FA72
:1009700003F3134306932546052214F8011B304662
:1009800000F05EFF831B0028F0D1069BD90644BF10
:1009900020228DF85B2029781A0744BF2B228DF87E
:1009A0005B202A2970D1059A11680432002905922A
:1009B000C0F29B800991697801352E2976D0614C6F
:1009C0000322204600F03CFF38B1069B001B402468
:1009D00004FA00F003430693013515F8011B5A4849
:1009E0008DF83010062200F02BFF002800F08380E5
:1009F000564B002B6DD005AA0092554B424606A9D6
:100A00004846AFF300800390039B013306D00B9B55
:100A1000039A297813440B9300298AD1B8F80C3033
:100A20005B0617D40B981FB0BDE8F08FFFF74EFEA2
:100A3000404B98457FF45CAFD9F80480B8F80C308F
:100A400018073FF563AF4146484600F053FB0028C6
:100A50003FF461AF4FF0FF30E5E7D9F8088050E789
:100A6000B4EB050BDAD0AA46C5F1010503E09345C6
:100A700036D91AF8011F42464846FFF7E5FE013015
:100A800005EB0A02F3D1C9E7A1F13002092A94D893
:100A9000099B15F8011F03EB830302EB4303A1F14C
:100AA0003002092AF5D92E29099388D169782A2993
:100AB0002BD1059BA9781A6807920433002A05F107
:100AC00002000593B8BF4FF0FF330546B8BF079348
:100AD00075E7059B073323F007030833059396E773
:100AE0000B9A23785A440B9232E7494243F00203AF
:100AF000099106935FE705AA0092154B424606A9A5
:100B0000484600F0CBF803907EE7A1F130020023C5
:100B1000092A079305F101053FF651AF15F8011FAA
:100B200003EB830302EB4303A1F13002092AF5D959
:100B3000079344E7143A0108F4390108D43901084D
:100B4000944101089C410108A041010800000000F7
:100B50008508000810B4054C8446134620685DF8EB
:100B6000044B0A466146FFF7B3BE00BF00000020F9
:100B70002DE9F84F92461F460A698B68DDF82890E8
:100B80009A42B8BF1A46CAF8002091F843300C4682
:100B9000064613B10132CAF80020226891065DD5DD
:100BA000DAF800300233CAF80030226812F0060F7B
:100BB00011461ED1E168CB1A002BD8BF114618DDB3
:100BC00004F1190B4FF0000805E0E568DAF8003091
:100BD000ED1A45450CDD01235A4639463046C847D3
:100BE000013008F10108F0D14FF0FF30BDE8F88F77
:100BF000216894F84330003B18BF01238A060AD5C8
:100C0000E1185A1C302081F84300224494F8451022
:100C100082F84310023304F1430239463046C84794
:100C20000130E1D0236803F00603042B1DD0A36834
:100C30002269934225DD4FF000089B1A98441A342C
:100C4000002501E045451CDA01232246394630469D
:100C5000C847013005F10105F4D1C5E712F0060FD0
:100C600012D0003B18BF0123D5E7DAF80030E16865
:100C70002269C91AA368934221EAE178DDDC0029E0
:100C8000DDDC0020BDE8F88FE168DAF80030CB1A2F
:100C9000002BD8BF114693DCABE700BF2DE9F0472E
:100CA0000C4684B09046227E0C990746994604F182
:100CB0004300002A33D0A2F15803DDB2202D67D8BB
:100CC000202B65D8DFE813F0DE00640064006400C8
:100CD0006400640064006400640064006400A300B5
:100CE0006E0064006400640064006E0064006400D0
:100CF0006400640021007F00C00064006400AE0056
:100D000064007F0064006400E50023681A0640F177
:100D100004810B6862691D1D0D601B681A60002349
:100D200082462361CDF80090434603AA2146384607
:100D3000FFF71EFF013020D0236952464146384656
:100D4000C847013019D02368E068039E9B0719D576
:100D5000831B002B16DD04F1190A002504E0E0686E
:100D6000039E831BAB420DDD0123524641463846AC
:100D7000C847013005F10105F1D14FF0FF3004B053
:100D8000BDE8F087B042B8BF304604B0BDE8F08798
:100D9000012384F84220236104F1420A002384F8ED
:100DA0004330BFE723681A0602D45E0600F1C18013
:100DB0000D682A6804350D601546002A6BDBDFF8E4
:100DC00084C10A2610E023681D0640F19C800B6850
:100DD0001D1D0D601D68DFF86CC16F2A0CBF082651
:100DE0000A26002384F843306268A260002A7FDB71
:100DF000236823F004032360002D5BD1002A79D1FE
:100E00008246082E65D0A0EB0A0020618AE70B68B5
:100E10000122186804330B6004F1420A84F842008E
:100E20002261BBE70B686268181D0860D3F800A058
:100E30000021504600F004FD002800F08180A0EB66
:100E40000A0060602061A9E7236843F02003236063
:100E50007822DFF8F4C084F845200A68151D0D607B
:100E60001D0643D4590641D51588DE0744BF43F01B
:100E700020032360002D44D1236823F02003236046
:100E80001026AEE7582384F84530DFF8B8C0236851
:100E9000E3E72368DCE76268A2602D21002AC5F140
:100EA000000584F8431002DB23F004032360DFF81D
:100EB00094C00A268246B5FBF6F306FB13512A4678
:100EC0001CF801100AF8011DB2421D46F3D2082E8B
:100ED00099D12368D90796D5626823699A4292DC32
:100EE00030230AF8013C0AF1FF3A8CE71568BCE7A9
:100EF000002DDFD19CF8003084F8423004F1420A22
:100F00007FE710266DE713F0400F0B6803F104052F
:100F10000D600CBF1D681D885DE713F0400F0B6866
:100F2000626903F104050D601B6814BF1A801A6022
:100F3000F5E60A68B2F9005004320A602A463CE736
:100F400060687FE7A8410108BC41010838B5074D3A
:100F50000022044608462A600CF0E0FC431C00D046
:100F600038BD2B68002BFBD0236038BD3C0100202E
:100F700010B50C46B1F90E1000F0BCFD002803DBE3
:100F8000636D0344636510BDA38923F48053A3817B
:100F900010BD00BF002070472DE9F0410C46B1F9AB
:100FA0000C101F46CB05054616460BD421F4805184
:100FB000A1813B46B4F90E1032462846BDE8F04107
:100FC00000F082B8B4F90E100223002200F092FB68
:100FD000B4F90C10EAE700BF10B50C46B1F90E10D9
:100FE00000F088FBA389421C0EBF23F4805343F416
:100FF00080536065A38110BDB1F90E1000F0FCB8FC
:10100000F8B50D461446064608B1836943B3254B2F
:101010009C422AD0244B9C4229D0244B9C4208BF9E
:10102000F468A389A269A2601A0722D5236903B3D1
:1010300022686169D31AEDB299422F4629DD013346
:10104000A1680139A160511C2160157062699A4242
:1010500016D0A389DB0701D50A2D11D03846F8BD7B
:10106000FFF734FB0F4B9C42D4D17468D9E7B468C6
:10107000D7E72146304600F03DF838B92369D7E775
:101080002146304600F054F90028E7D04FF0FF37F2
:10109000E4E72146304600F04BF90028F6D12268FB
:1010A0000123CDE7143A0108F4390108D4390108C5
:1010B00010B4044C03460A4620685DF8044B1946F8
:1010C000FFF79EBF0000002038B50C46084D84464F
:1010D000114620461A4600232B6064460CF062FC41
:1010E000431C00D038BD2B68002BFBD0236038BDDB
:1010F0003C0100203C4B70B51D6806460C460DB106
:10110000AB69E3B1394B9C421FD0394B9C424DD067
:10111000384B9C4208BFEC68B4F90C3018079AB2FF
:1011200019D5216911B312F001002FD00020A06061
:1011300060694042A06100292ED0002070BD284681
:10114000FFF7C4FA294B9C42DFD16C68B4F90C302C
:1011500018079AB2E5D4D1063ED5520728D42169A2
:1011600043F00803A3819AB20029DCD102F4207075
:10117000B0F5007FD7D02146304600F0D1FAB4F95F
:101180000C3021699AB212F00100CFD1950758BFF7
:101190006069A0600029D0D1120658BF0846CDD59D
:1011A00043F04003A3814FF0FF3070BDAC68B3E75C
:1011B000616B51B104F14402914204D0304600F019
:1011C0000FFCB4F90C300022626321690022C4E9EB
:1011D000001223F02403C3E7092243F040033260E6
:1011E0004FF0FF30A38170BD00000020143A0108C9
:1011F000F4390108D439010838B5074D00220446F6
:1012000008462A600CF0DCFB431C00D038BD2B687C
:10121000002BFBD0236038BD3C0100208B891A07CE
:101220002DE9F0410C4680463FD44A68002A58DD3B
:10123000E66A002E52D00022D8F80050C8F80020EC
:1012400013F4805251D10123216A4046B047431C18
:101250005ED0A389E66A5F0705D56368C01A636B31
:101260000BB1236CC01A216A024600234046B047E6
:10127000411C3CD1D8F80030002B38D01D2B01D0B8
:10128000162B4DD123690022C4E90032616BC8F8E6
:10129000005019B304F14403994202D0404600F0D3
:1012A0009FFB00206063BDE8F0810E69B6B10D6858
:1012B0000E609A070CBF4B690023AD1B8B600BE0DF
:1012C0002B463246216AA76A4046B847B0F1000C67
:1012D000A5EB0C05664413DD002DF1DC0020BDE814
:1012E000F0810A6C002AA3DCF8E7606DB3E7002305
:1012F000636023692360A389DB04C7D56065C5E704
:10130000A38943F040034FF0FF30A381BDE8F08193
:10131000D8F80030002B9CD01D2B06D0162B04D003
:10132000A38943F04003A381D9E7C8F80050D5E76B
:1013300038B50B69BBB10D46044608B18369B3B13A
:101340000D4B9D4211D00D4B9D4213D00C4B9D4235
:1013500008BFE568B5F90C302BB129462046BDE839
:101360003840FFF75BBF002038BD6568F2E7FFF744
:10137000ADF9E5E7A568EDE7143A0108F43901088D
:10138000D439010838B540B303690446E3B1174BBB
:101390001D680DB1AB69CBB1154B9C420FD0154BFD
:1013A0009C4221D0144B9C4208BFEC68B4F90C302D
:1013B00053B121462846BDE83840FFF72FBF6C687F
:1013C000B4F90C30002BF4D1002038BD2846FFF7CB
:1013D0007DF9074B9C42E2D1F1E7084B08491868B8
:1013E000BDE83840FFF7B2B9AC68DFE70000002085
:1013F000143A0108F4390108D4390108D039010838
:10140000311300089368002B00F085802DE9F04F20
:10141000B1F90C300C461907804683B0174698B2D4
:1014200025D523691BB310F002033D682DD04FF082
:10143000000ADFF8BCB25646B9465E45334652460E
:1014400028BF5B464046002E52D0216AA76AB847A3
:10145000002856DDD9F808301B1A8244361AC9F81C
:101460000830002BE9D1002003B0BDE8F08F214601
:101470004046FFF73FFE002840F03681B4F90C30BB
:101480003D6898B210F00203D1D110F0010944D1A7
:101490004E46009746B38205D4F808B040F18380E9
:1014A000B3455A4600F2B28010F4906F40F0BF800E
:1014B00020680192494600F013FAA368019AA3EB51
:1014C0000B012368A1601344B24623600026009BF1
:1014D0009868A0EB0A00D14498600028C3D0B4F902
:1014E0000C0080B2002ED6D1D5E900960835D1E7A0
:1014F000D5E900A60835A0E721464046FFF718FFCA
:1015000080B3B4F90C3043F040034FF0FF30A381B7
:1015100003B0BDE8F08F002070471E46AA469946EA
:1015200018461D46009756B388B34A46D4E90413BB
:101530002068B24228BF3246884205D9A16803EB31
:10154000010B5A4500F3A680934263DC216AA76A27
:101550002A464046B847B0F1000BD2DDB9EB0B0983
:10156000CAD00120009A9368A3EB0B035D44A6EB5D
:101570000B069360002B3FF476AF002ED4D10AF116
:10158000080353E902569A460833002EF9D0324632
:101590000A21284600F054F9002800F09C80013010
:1015A000A0EB0509C1E720682369984216D8636952
:1015B000B34213D86FF00042B24228BF3246216ACC
:1015C00092FBF3F2A76A02FB03F340464A46B84790
:1015D000B0F1000A95DDA6EB0A0678E7B345DA46D6
:1015E00028BFB2465246494600F07AF9A3682268FD
:1015F000A3EB0A035244A3602260002BEBD12146E7
:101600004046FFF795FE0028E5D07AE72068B3460C
:1016100032464EE72946019200F062F9019AA3682A
:101620009B1AA360236813442360934696E72368BC
:101630002169A3EB010B636903EB430A0AEBDA7A36
:101640000BF101034FEA6A0A33445345524684BF03
:101650009A46524643052CD511464046FFF79AF864
:1016600000283BD05A4621690190FEF717FEA28957
:10167000019B22F4906242F08002A28103EB0B00F6
:101680002361AAEB0B03C4F814A0A3602060B34647
:1016900032460EE729465A4600F022F923685B4499
:1016A000236021464046FFF743FE00283FF456AF33
:1016B00027E7404600F0F6F903460028DED121690D
:1016C000404600F08DF9B4F90C300C2223F0800371
:1016D000C8F8002017E7721C914627E70C22B4F9DE
:1016E0000C30C8F800200EE74FF0FF30BCE600BF1A
:1016F00000FCFF7F38B50C46084D84461146204655
:101700001A4600232B6064460CF064F9431C00D099
:1017100038BD2B68002BFBD0236038BD3C01002076
:10172000F0B58B890C46990797B007D504F14703AC
:101730000122C4E90432236017B0F0BDB4F90E10E1
:10174000002905462DDB6A4600F0EAF9002827DB70
:10175000019E06F470464FF48067A6F50056B6FA6F
:1017600086F6394628467609FFF714F830B3A38980
:101770001A4AAA6243F08003C4E90407A3812060E7
:10178000002ED9D0B4F90E10284600F0DFF9002859
:10179000D2D0A38923F0030343F00103A381CBE755
:1017A000A38913F0800F14BF40274FF48067394698
:1017B00028460026FEF7EEFF0028D8D1B4F90C30F9
:1017C0009A05B9D423F0030304F1470243F002035E
:1017D0000121C4E90421A3812260ADE7D9040008F6
:1017E00070B50C46B1F90E10002996B016461D468C
:1017F00013DB6A4600F094F900280EDB019901F42E
:101800007041A1F50051B1FA81F14FF480634909AB
:1018100000202960336016B070BDB4F90C3000228E
:101820001B062A6004D540230020336016B070BD2B
:101830004FF480630020336016B070BD00000000DC
:1018400001F0FF01102A2BDB10F0070F08D010F871
:10185000013B013A8B422DD010F0070F42B3F6D175
:10186000F0B441EA012141EA014122F007047FF08E
:1018700000070023F0E80256083C85EA010586EAE5
:10188000010685FA47F5A3FA87F586FA47F6A5FA21
:1018900087F68EB9EED1F0BC01F0FF0102F007022D
:1018A00032B110F8013B013A83EA010313B1F8D1D8
:1018B0000020704701387047002D06BF35460338B9
:1018C000073815F0010F07D1013015F4807F02BFF2
:1018D000013015F4C03F0130F0BC0138704700BF43
:1018E00088420DD98B1883420AD900EB020CBAB199
:1018F000624613F801CD02F801CD9942F9D1704743
:101900000F2A0ED8034602F1FF3C4AB10CF1010C3C
:10191000013B8C4411F8012B03F8012F6145F9D1EB
:10192000704740EA01039B0750D1A2F1100370B544
:1019300001F1200C23F00F0501F1100E00F110044D
:10194000AC441B095EF8105C44F8105C5EF80C5C5B
:1019500044F80C5C5EF8085C44F8085C5EF8045CD3
:1019600044F8045C0EF1100EE64504F11004E9D1D0
:10197000013312F00C0F01EB031102F00F0400EB26
:10198000031327D0043C24F003064FEA940C1E44B2
:101990001C1F8E465EF8045B44F8045FB442F9D124
:1019A0000CF1010402F0030203EB840301EB840158
:1019B00002F1FF3C4AB10CF1010C013B8C4411F8DF
:1019C000012B03F8012F6145F9D170BD02F1FF3CF5
:1019D00003469BE72246EBE7704700BF704700BF16
:1019E000002958D030B551F8043C83B0002BA1F148
:1019F0000404B8BFE4180190FFF7EEFF284A0198ED
:101A0000136833B1A3420DD9216804EB010C63457F
:101A10002FD06360146003B0BDE83040FFF7DEBF35
:101A2000A34210D81A465B68002BF9D1116802EB6B
:101A3000010C644519D02FD36360546003B0BDE836
:101A40003040FFF7CBBF116802EB010CA44516D064
:101A500022D8216804EB010C6345EDD11D685B6859
:101A60002944C4E900135460D5E723681944116080
:101A7000D1E71D685B682944C4E90013CAE72468FC
:101A800021445418A3421160C5D1D3E90043214435
:101A9000C2E90013BFE770470C230360BBE700BF38
:101AA00034010020F8B51446F9B1CAB106460D4616
:101AB00000F05EF8A04202D32F463846F8BD21461A
:101AC0003046FEF767FE07460028F6D02246294634
:101AD000FEF7E4FB30462946FFF782FF3846F8BDA3
:101AE0002746FFF77DFF3846F8BDBDE8F8401146B0
:101AF000FEF750BE38B50C46084D844611462046C8
:101B00001A4600232B6064460BF03CFF431C00D0B8
:101B100038BD2B68002BFBD0236038BD3C01002072
:101B200070B50C46084D03460026204611461C465B
:101B30002E600BF048FF431C00D070BD2B68002BBB
:101B4000FBD0236070BD00BF3C01002038B5074DBD
:101B50000022044608462A600BF03AFF431C00D0DE
:101B600038BD2B68002BFBD0236038BD3C01002022
:101B700051F8040C0028A0F10400BCBF0B58C01899
:101B8000704700BF00000000014B1868704700BF9D
:101B9000383A01082DE9F04788B0109D002D69D032
:101BA00005F15009044648460E4690461F4600F08F
:101BB000A9FC00285ED0002C5CD0D4F800A0BAF1BB
:101BC000000F04D06427384608B0BDE8F0873046DF
:101BD00002F034FB002852D0B8F1000F4AD0002F99
:101BE00048D0CDE903AA07AA059205F1580393E866
:101BF00007008DE80700CDF81CA0394699E80C00D5
:101C0000304602F0EFFB074600284FD12B6D296EBE
:101C1000C8209847206000284ED0304602F054FB80
:101C200005F164030093079A27682B46414600F0AC
:101C300093FD2368C7F8C400D3F8C40070B303F160
:101C4000700100F06BFE23680746D0B995F8482074
:101C500083F8B820294670221846FEF71FFB326829
:101C6000C0F8C02007986B6D296E9847384608B0B9
:101C7000BDE8F0870B27384608B0BDE8F087C827D5
:101C8000A1E78BB1D3F8C42042B1304602F01CFB6F
:101C90002368D3F8C41000F055FE23686A6D296EDE
:101CA00018469047002323600127DBE76728D9D037
:101CB000692803D00A28F7D10A27D3E76727D1E795
:101CC00070B500B3044608460D4602F0AFFAF0B115
:101CD0002368ABB128465E6D1D6E02F0F5FAC8B1FF
:101CE0002368D3F8C41000F02DFE0346294620686F
:101CF0001D1E18BF0125B04700232360284670BD74
:101D00001D46284670BD4FF49675284670BDC825FF
:101D1000284670BD0B25F1E770B5144D144988B005
:101D2000044650222846FEF7B9FA02A800F0DCFB70
:101D30000DF1080CBCE80F0005F1500EAEE80F00E5
:101D40006E46DCF80030CEF80030304600F062FC21
:101D500096E8030005F1640383E803007022294636
:101D60002046FEF79BFA204608B070BD40010020D7
:101D7000403A0108E0B1036870B50446ABB11646BD
:101D8000D3F8C4208AB1D3F8C0000D4601F0CEFDCF
:101D900058B12368D3F8C40038B13246294600F060
:101DA000CDFDBDE8704001F08DBD4FF4967070BD63
:101DB0004FF49670704700BFE8B138B50368044629
:101DC000A3B1D3F8C4208AB1D3F8C0000D4601F006
:101DD000ADFD58B12368D3F8C40038B14DB12946E0
:101DE00000F0AEFDBDE8384001F06CBD4FF49670D8
:101DF00038BD0B2038BD4FF496707047F8B10368BA
:101E000070B50446B3B11646D3F8C42092B1D3F8E6
:101E1000C0000D4601F08AFD60B12368D3F8C4000C
:101E200040B155B13246294600F028FC003818BFB1
:101E3000012070BD4FF4967070BD0B2070BD4FF443
:101E40009670704700B3036870B50446BBB1164680
:101E5000D3F8C4209AB1D3F8C0000D4601F066FD56
:101E600068B12368D3F8C40048B15DB13246294651
:101E700000F064FC10B10A2818BF012070BD4FF4B7
:101E8000967070BD0B2070BD4FF49670704700BF08
:101E9000F8B1036870B50446B3B11646D3F8C42050
:101EA00092B1D3F8C0000D4601F040FD60B1236847
:101EB000D3F8C40040B155B13246294600F040FC89
:101EC000003818BF012070BD4FF4967070BD0B2014
:101ED00070BD4FF496707047C0B1036810B50446EA
:101EE0008BB1D3F8C42072B1D3F8C00001F01EFD4D
:101EF00048B12368D3F8C40028B100F00DFD0038C4
:101F000018BF012010BD4FF4967010BD4FF49670AD
:101F1000704700BF002855D070B51D46036886B0D5
:101F20000446B3B31646D3F8C42092B3D3F8C00026
:101F300001F0FCFC68B32368D3F8C4404CB3012E15
:101F400075F1000329DB22A3D3E90023304629469B
:101F500006F0D6F902460B46CDE9022330461CA313
:101F6000D3E90023294606F0CBF9CDE9042306ABDB
:101F700013E9030002AB0CCB8DE80300204600F010
:101F8000E1FB40B1022806D0032818BF012006B0AB
:101F900070BD4FF4967006B070BD56EA05030AD0C6
:101FA0000DA1D1E900010EA3D3E90023CDE902017F
:101FB000CDE90423DBE700220023CDE90223CDE9AC
:101FC0000423D4E74FF49670704700BFAFF300804E
:101FD00000CA9A3B00000000047DC12502000000F9
:101FE000FFD7F2320000000028B1006818B1D0F825
:101FF000C40000B18068704730B1006820B1D0F8EB
:10200000C430002B08BF0020704700BF18B1006823
:1020100008B1D0F8C400704740B1006830B1D0F8C2
:10202000C43013B1D0F8C00070471846704700BFE5
:10203000A0B1036810B5044673B1D3F8C4205AB1F7
:10204000D3F8C00001F072FC30B12368D3F8C400AB
:10205000003818BF012010BD002010BD00207047BF
:1020600030B1006820B1D0F8C400003818BF01209A
:10207000704700BF38B5C8B103680446B3B1D3F8A0
:10208000C4209AB1D3F8C0000D4601F04FFC68B1EE
:102090002368D3F8C40048B165B1294600F03AFC82
:1020A000034628B1BDE8384001F00CBC4FF49673EC
:1020B000184638BD0B23184638BD00BF38B100683C
:1020C00028B1D0F8C4300BB1703070471846704753
:1020D00020B310B5036882B00446E3B1D3F8C4203E
:1020E000CAB1D3F8C00001F021FCA0B12368D3F835
:1020F000C43083B100230DF107008DF8073002F0E2
:1021000009F910B99DF807302BB92368D3F8C4300A
:10211000187D02B010BD002002B010BD0020704735
:102120002DE9F04186B0B8B31C46ABB30F469046DC
:10213000064601F085FD04F10C03059093E80300C9
:102140008DE8030005A894E80E0001F07BFD05462C
:10215000E0B902AD284601F0C9FB95E8030033461B
:1021600086E8030005AA4146384601F05DFC0546B5
:10217000B8B9B460224606F10C01032002F07EFAE1
:10218000054670B905A801F0C3FD08B100F034FAA6
:10219000284606B0BDE8F0810B25284606B0BDE80C
:1021A000F08100F029FA05A801F0B2FD0028EFD077
:1021B000ECE700BF2DE9F04383B00A9E40B31D4613
:1021C00033B32EB3E946044648460F46904601F025
:1021D0008DFB99E803002A4684E803002346414624
:1021E000384601F021FC054660B9A660324604F18C
:1021F0000C01032002F042FA054618B9284603B044
:10220000BDE8F08300F0F8F9284603B0BDE8F0839C
:102210000B25284603B0BDE8F08300BF38B520B3D6
:1022200004460C3002F0A2FA054648B9204601F0F7
:10223000E9FC68B9204601F0E5FB88B9284638BDBD
:1022400000F0DAF92046012501F0DCFC0028F1D08D
:1022500000F0D2F92046012501F0D4FB0028EDD092
:10226000012500F0C9F9284638BD0B25284638BDA0
:10227000B8B32DE9F0430D46A1B029B316461AB301
:102280001F460BB30DF110080446404601F054FE02
:1022900098E803000DF1180984E80300484602F0AD
:1022A00059F8404601F048FECDF8009098E8030048
:1022B0003B4684E8030032462946204601F046FEAC
:1022C00030B921B0BDE8F0830B2021B0BDE8F08328
:1022D000039000F091F900F08FF9039821B0BDE868
:1022E000F0830B20704700BF58B32DE9F0420D4634
:1022F00086B0D9B11746CAB11E46BBB10C9BABB173
:102300000DF110090446484601F016FE0C9B00939F
:1023100099E80300334684E803003A4629462046FC
:1023200001F014FE30B906B0BDE8F0820B2006B013
:10233000BDE8F082039000F05FF9039806B0BDE8B5
:10234000F0820B20704700BF68B32DE9F0410D46C5
:10235000A0B021B3164612B31F4603B30446FFF7DD
:1023600013FC0DF1100820604046FFF7D5FC0F4923
:1023700050224046FDF792FFCDF800803B463246A2
:1023800029462046FFF706FC10B920B0BDE8F081D1
:10239000039000F031F9039820B0BDE8F0810B20E4
:1023A00020B0BDE8F0810B20704700BF903A0108D3
:1023B00068B32DE9F0410D46A0B021B3164612B323
:1023C0001F4603B30446FFF7DFFB0DF11008206042
:1023D0004046FFF7A1FC0F4950224046FDF75EFF43
:1023E000CDF800803B46324629462046FFF7D2FB17
:1023F00010B920B0BDE8F081039000F0FDF803981B
:1024000020B0BDE8F0810B2020B0BDE8F0810B20AA
:10241000704700BFE03A01082DE9F043A1B0DDF8B4
:10242000A08010B30D4601B31646F2B11F46E3B1CA
:10243000B8F1000F19D00446FFF7A6FB0DF1100903
:1024400020604846FFF768FC414650224846FDF7A9
:1024500025FFCDF800903B46324629462046FFF73F
:1024600099FB30B921B0BDE8F0830B2021B0BDE865
:10247000F083039000F0C0F8039821B0BDE8F0832A
:1024800006F010B906F01ABA06F082B906F078B96B
:1024900010B5054C864684460FCCACE80F00236887
:1024A000CCF80030704610BD303B0108A8B102687E
:1024B000A2B14168A1B110B4C46864B1806838B1F8
:1024C000084B1A600022C3E90342C3E9011001204E
:1024D0005DF8044B70472046FAE770471046704796
:1024E000084670476400002010B5054C86468446B7
:1024F0000FCCACE80F002368CCF80030704610BD5C
:102500006400002058B1036843B1436833B1C36825
:1025100023B18068003818BF012070471846704703
:1025200070B51546A2B1146854B1546844B1D4686A
:1025300034B1946824B112690646A047044608B134
:10254000204670BD30466B6829699847204670BDAB
:102550001446204670BD00BF84B038B5114D04ACA0
:1025600084E80F002C7824B1BDE83840002004B086
:10257000704704A8FFF7C6FF70B1012300200021B7
:10258000C5E904012B7020462C812C766C76AC7644
:10259000BDE8384004B07047BDE838400B2004B0B7
:1025A000704700BFB001002048B141B1044B002189
:1025B000C3E904210120198159761976987670476C
:1025C000B0010020014B987E704700BFB001002091
:1025D00000487047B8010020054B9A7E2AB15A7E08
:1025E0000AB901225A76187E7047024B1878704754
:1025F000B0010020D0410108054B0022002000213D
:10260000C3E904011A815A761A769A76704700BF98
:10261000B0010020002202600271704770B4DDE951
:10262000035662B15BB155B14EB1064C2070C4E99E
:102630000112C4E903356661002070BC70470B20AD
:1026400070BC7047CC01002070B4059CDDE90356D6
:102650006AB163B15DB156B14CB1646B2074C4E929
:102660000512C4E907356662002070BC70470B2074
:1026700070BC7047C96F0DF0FFBB00BF002853D07E
:1026800070B50D468EB000294BD00446006801F0AD
:10269000A7F8002845D06668002E42D0B4692846C5
:1026A00023699847F369059013B105A898470598E1
:1026B000D6F880301B6900907269B16F03F52870FD
:1026C00006AB0EF019FAD8B1A36806A928469847B8
:1026D000336A04460BB106A8984796F87A30012B66
:1026E000D6F8803022D01869F16F00F528700DF00F
:1026F000C3FB2040C4B284F00100C0B20EB070BD74
:10270000D6F880301869059B00930B4B0193029615
:102710007269B16F00F5287006AB0EF01DFA002843
:10272000D2D101200EB070BD01207047186900F5AC
:1027300028700DF01BF8DEE77526000803207047AF
:102740000320704782B08DE80C00032002B0704770
:1027500003207047032070472DE9F04F87B0002811
:1027600000F0CC800E46002900F0C88004460068C6
:102770001546984601F034F8002800F0BF80002D7F
:1027800000F0BC802B78002B00F0B880B8F1000F6F
:1027900000F0B4805C48D4F8049003F0CBFD00282E
:1027A00000F0AC808468C4F8884003F0E7FD04F1D1
:1027B0009C0AC4F88400C4F88CA0284606F060FC8B
:1027C00001303C2804F1840700F291804F4A2B46E7
:1027D0003C21504606F0C2F94FF47A73E367414654
:1027E000C4F88090502204F12800FDF757FD98F8B6
:1027F00008304749022BD9F810300CBFD3F87C338E
:10280000D3F87833A3670023C4E90733304600F0D8
:10281000F5FF00286BD04268A261002A67D02946E4
:102820004346484604F09EF86062002863D0D9F819
:10283000103003F580530321B3F89805421CA3F828
:1028400098250CF033FED4F88020D9F810302061A0
:10285000D3F8843310690625009519682269D9F8E0
:10286000143000F528700CF05FFC0246D9F8100017
:10287000D0F88C33D0F8841300F0A2FBB8B3D9F8A9
:10288000103003F580530521B3F89A05421CA3F8D4
:102890009A250CF00BFED4F8803060611E69D9F8DF
:1028A0001030D4F824B00DF1100A41465046D3F848
:1028B000848300F0A1FB03959AE803000190ADF832
:1028C0000810DBF81030009306F52876D4E90432BE
:1028D000D8F8001030460CF087FC0246D9F81000FA
:1028E000D0F88C33D0F8841300F06AFB38B9606AF2
:1028F00008B100F04FFA384600F0F4F900273846E6
:1029000007B0BDE8F08F00BF0802002008420108B0
:10291000D4410108032070470320704750B108B527
:102920000B4649B14168502228311846FDF7B6FCE4
:10293000002008BD0B2070470B2008BD0320704706
:1029400003207047F8B528B1044600680D4600F032
:1029500047FF10B901242046F8BD6368002BF9D069
:10296000002DF7D0286800F03BFF0028F2D06C68FB
:10297000002CEFD0606AD4F8807004F043F8D4F8EB
:10298000803062691869D0F8883300F528701968BA
:102990000CF016FBD4F8803022691B69D3F8881339
:1029A0000446096803F528700CF00AFB3E692246CC
:1029B000D6F89033D6F888130446304600F000FB72
:1029C0003E692246D6F89033D6F88813044630463E
:1029D00000F0F6FA2CB120B10024284600F082F96C
:1029E000B9E70224F9E700BFE2B12DE9F041057B28
:1029F0000646ADB9C823C0E90055836040F2011313
:102A0000174683810C46A84621463046013503F01F
:102A1000A1FCAF42A46084F80C8004F1C804F3D197
:102A2000BDE8F081704700BFE2B12DE9F041057BC0
:102A30000646ADB9C823C0E90055836040F20113D2
:102A4000174683810C46A84621463046013503F0DF
:102A500081FCAF42A46084F80C8004F1C804F3D177
:102A6000BDE8F081704700BFE2B12DE9F041057B80
:102A70000646ADB9D823C0E90055836040F2011382
:102A8000174683810C46A84621463046013503F09F
:102A900061FCAF42A46084F80C8004F1D804F3D147
:102AA000BDE8F081704700BFE2B12DE9F041057B40
:102AB0000646ADB9D823C0E90055836040F2011342
:102AC000174683810C46A84621463046013503F05F
:102AD00041FCAF42A46084F80C8004F1D804F3D127
:102AE000BDE8F081704700BFE2B12DE9F041057B00
:102AF0000646ADB9A423C0E90055836040F2011336
:102B0000174683810C46A84621463046013503F01E
:102B100021FCAF42A46084F80C8004F1A404F3D13A
:102B2000BDE8F081704700BFEAB12DE9F843057BAD
:102B30000646B5B9C0E9005541F2A85840F2011364
:102B40001746C0F808800C468381A94621463046C6
:102B5000013503F0FFFBAF42A46084F80C904444BD
:102B6000F4D1BDE8F8837047E2B12DE9F041057B6F
:102B70000646ADB91C23C0E90055836040F201133D
:102B8000174683810C46A84621463046013503F09E
:102B9000E1FBAF42A46084F80C8004F11C04F3D183
:102BA000BDE8F081704700BFEAB12DE9F041057B37
:102BB0000646B5B94FF40463C0E90055836040F29E
:102BC0000113174683810C46A8462146304601353D
:102BD00003F0C0FBAF42A46084F80C8004F50464E9
:102BE000F3D1BDE8F0817047E2B12DE9F041057BFA
:102BF0000646ADB92C23C0E90055836040F20113AD
:102C0000174683810C46A84621463046013503F01D
:102C1000A1FBAF42A46084F80C8004F12C04F3D132
:102C2000BDE8F081704700BFE2B12DE9F041057BBE
:102C30000646ADB91C23C0E90055836040F201137C
:102C4000174683810C46A84621463046013503F0DD
:102C500081FBAF42A46084F80C8004F11C04F3D122
:102C6000BDE8F081704700BFE2B12DE9F041057B7E
:102C70000646ADB92023C0E90055836040F2011338
:102C8000174683810C46A84621463046013503F09D
:102C900061FBAF42A46084F80C8004F12004F3D1FE
:102CA000BDE8F081704700BF0146014803F052BB08
:102CB000E801002038B50446006828B1074B1968C0
:102CC00006F002F840B92060616829B10025044887
:102CD0000D6103F03FFB656038BD00BF983F010800
:102CE000F801002010B50446006828B1064B1968A9
:102CF00005F0EAFF38B92060616821B1034803F0AC
:102D000029FB0023636010BD983F010808020020E2
:102D100010B50446006828B1064B196805F0D4FFC9
:102D200038B92060616821B1034803F013FB002328
:102D3000636010BD983F01081802002010B50446DA
:102D4000006828B1064B196805F0BEFF38B920604D
:102D5000616821B1034803F0FDFA0023636010BDF0
:102D6000983F01082802002010B50446006828B1E9
:102D7000064B196805F0A8FF38B92060616821B1D9
:102D8000034803F0E7FA0023636010BD983F010891
:102D90003802002010B504462146034803F0DAFA51
:102DA0000023A36110BD00BF48020020084B1B6F29
:102DB0005BB100219A685B68D2F81428904208BF82
:102DC0000131002BF6D10846704719460846704776
:102DD000E801002082B030B525490D6F03AC84E8CE
:102DE0000C001C46002D41D02B4600219A685B68E0
:102DF000D2F81428904208BF0131002BF6D19DF87B
:102E00000C30022B29D007D9032B05D00021BDE8B7
:102E10003040084602B0704714B38C4220D8002DD1
:102E2000F4D000214FF0FF3C6FF0004402E06D68E9
:102E3000002DECD0AB68D3F814289042F7D1D3F82A
:102E4000182803F50263624553F8043C73EB040E43
:102E5000EDDA94461C462946E9E70CB18C42D5D9F7
:102E6000BDE83040034802B003F064BA2946C6E723
:102E7000E801002058020020114B1B6F30B5E3B170
:102E80004FF0FF3E6FF0004C002401E05B6893B10F
:102E90009A68D2F814188842F8D1D2F81818D2F8E3
:102EA0001C28714572EB0C05F0DA1C465B688E46F7
:102EB0009446002BECD1204630BD1C46204630BD48
:102EC000E80100202DE9F04F3B4B2DED068B1F6FE5
:102ED0008DB004F0BBF9002F5DD0B8469FED308B6C
:102EE000D8F8085095F82038042B9FED2FAB9FEDB4
:102EF000309B81468A4604AC3FD0052B44D0032B3F
:102F00003BD08DED048B8DED06AB8DED088B8DEDFB
:102F10000A8B08AB0FCB8DE80F0094E80F0002F08E
:102F2000F3FE18B18DED049B8DED068B94E80F0038
:102F3000D5F81868D5F81C78D8F804B002F038FF36
:102F4000301847EB0101484571EB0A0305F50265AE
:102F500005DB55E9022391457AEB030303DA1748B1
:102F6000414603F0F7F9BBF1000F14D0D846D8F86A
:102F7000085095F82038042BBFD1D5F814384033C9
:102F80000FCB84E80F00C0E7D5F8143848330FCBD7
:102F900084E80F00B9E70DB0BDEC068BBDE8F08FFB
:102FA0000000000000000000010000000000000020
:102FB0001E00000000000000E80100205802002070
:102FC00010B58C7886B0012CADF80E200CD01946C7
:102FD000012300930DF10E020DF1170300F5287087
:102FE0000CF070FF06B010BD00F528700CF0BEFBB1
:102FF000204606B010BD00BF4A7A91F808C0022AE8
:1030000018BF002202700A7889888180ACF1020C16
:10301000A2F10202BCFA8CFCB2FA82F24FEA5C1C0A
:10302000520980F801C08270704700BF10B51C467D
:1030300010460B46054A214605F090FD002800DBAE
:1030400010BD8442D8BF002010BD00BF443B010822
:10305000F0B5144D83B01C46CDE900052B1F064684
:1030600017460846104A214605F078FD05F1080389
:1030700001460C3501950C4A00960D46384621460E
:1030800005F06CFD002D01DBAC4202DC002003B03A
:10309000F0BD0028FADB8442D4BF0020012003B039
:1030A000F0BD00BF8C3B0108044201082DE9F04748
:1030B000054686B080680C4617461E468047EB687A
:1030C00080469847D8F80420D0F804900023237055
:1030D0001368002B42D0DFF8988041462046224CEE
:1030E00005945268DFF890A004920091CDE902485F
:1030F0001E4ACDF804A0314605F030FD00281FDB44
:1031000000233B70D9F80030B042ACBF0025012548
:10311000EBB1174A0594D9F804100092CDE9038168
:10312000CDE901A4114A3846314605F017FD0028C3
:1031300010DBB042B4BF2846002006B0BDE8F087DF
:1031400000233B70D9F800300025002BE1D1094B5A
:103150001A46DFE7002006B0BDE8F087054BDFF830
:1031600010801946BAE700BF0C420108FC41010873
:10317000F8410108A84D0108104201082DE9F04F5F
:103180001C46AFB09B68DFF8349190460D46074669
:1031900098470646E36898470023726889F800302C
:1031A0001368D0F804B0002B7ED0414E3146414C1C
:1031B00005945268DFF828A104920091CDE90246F7
:1031C0003D4A3E48CDF804A0642105F0C7FC002329
:1031D00089F86430DBF80030002B62D0344A059463
:1031E000DBF8041036480092CDE90361CDE901A473
:1031F000314A642105F0B2FC389B93F84820002343
:103200008DF86C308DF824301BAC002A36D12D4E51
:103210002D4A00950196331F4921204605F09EFC5A
:10322000482803D900202FB0BDE8F08F06F10C0329
:103230000DF1240A0193244A009506F10803472161
:10324000504605F08BFC4628ECD81D4B0393CDE986
:10325000044A1E4B1E4C1F4A0097B8F1000F08BFCE
:103260002346CDE90159DDE93901069305F076FCE5
:103270000028D8DA3A9B8342D4DDD4E7164A2B469D
:103280004921204605F06AFC4828CBD80DF1240AD4
:10329000114A2B464721504605F060FC4828D4D9F6
:1032A000C0E70E4B1A469AE70C4B014E19467EE7D3
:1032B000F84101080C420108FC410108A44B002020
:1032C000084C00208C3B010804420108144201080C
:1032D00020420108A03B010808420108A84D01084E
:1032E0001042010800230B700120704700230B706F
:1032F0000120704710B5034682B080781B8800908B
:1033000014460846054A214605F028FC002802DA42
:103310008442D8BF002002B010BD00BF503C01085D
:1033200030B500230B70036887B01446D3B10F4A41
:1033300015460392009542680D48019008460D49D4
:103340000492059102910C4A214605F007FC0028E1
:1033500005DB8442D4BF0020012007B030BD00202F
:1033600007B030BD054B014A1D46E2E7F8410108B0
:10337000104201080C420108FC410108A84D010857
:1033800010B582B014460090084B094A0846214601
:1033900005F0E4FB002805DB8442D4BF00200120B7
:1033A00002B010BD002002B010BD00BF583C0108A3
:1033B00028420108F0B597B007460E4615461C4650
:1033C00005F05EFE3C2802D9002017B0F0BD234B6B
:1033D000002283F8C8203368002B3AD0204A1146D7
:1033E0000091039272681F4904921F4A019205914D
:1033F00002911E4A1E48642105F0B0FB6328E3D801
:1034000095F84830C3B906AD1A4B1B4A00974021C6
:10341000284605F0A3FB002817DB154B0093174A3D
:103420001C992B46204605F099FB0028CDDA1C9B01
:103430008342D8BF0020C8E706AD114A3B46402171
:10344000284605F08BFB0028E7DA1C9B8342E4DC6E
:10345000BAE70C4B024A1946C2E700BFA44B002052
:10346000F84101080C42010810420108FC41010822
:103470006C4C0020583C0108284201085C3C0108C3
:1034800008420108A84D0108F0B52B4F1C46002347
:1034900087F82C31136897B006460D46002B46D0AE
:1034A0002649084603910090526825490492254A0E
:1034B000019205910291244A2448642105F04EFBB3
:1034C000632831D894F8483000228DF81820FBB9D1
:1034D00006AF1F4B1F4A00954021384605F03EFBC2
:1034E00000281EDB0097217A1B4A1C4B17480190CD
:1034F000022918BF1346DDE91C01324605F02EFBF8
:10350000002812DA1D9B9842A8BF002017B0F0BD1A
:1035100006AF134A2B464021384605F01FFB002812
:10352000E0DA1D9B9842DDDB002017B0F0BD0D4BAB
:1035300002491846B6E700BFA44B0020F841010835
:103540000C42010810420108FC410108D04C002047
:10355000583C0108284201083C4201083042010859
:1035600008420108A84D0108F0B52B4F1E46002364
:1035700087F82C310B6897B005461446002B46D0CF
:10358000264A1046009003924A6804922449254A2C
:10359000019205910291244A2448642105F0DEFA43
:1035A000632831D894F8483000228DF81820FBB9F0
:1035B00006AF1F4B1F4A00954021384605F0CEFA52
:1035C00000281EDB0097207A1B491C4B174A0192EA
:1035D000022818BF0B461A4A1C99304605F0BEFA5D
:1035E000002812DA1C9B9842A8BF002017B0F0BD3B
:1035F00006AF144A2B464021384605F0AFFA0028A2
:10360000E0DA1C9B9842DDDB002017B0F0BD0E4BCA
:10361000024A1846B6E700BFA44B0020F841010853
:103620000C42010810420108FC410108D04C002066
:10363000583C0108284201083C4201083042010878
:10364000A03C010808420108A84D0108F0B52B4F25
:103650001E46002387F82C310B6897B005461446A8
:10366000002B46D0264A1046009003924A680492E6
:103670002449254A019205910291244A2448642153
:1036800005F06CFA632831D894F8483000228DF8A0
:103690001820FBB906AF1F4B1F4A00954021384642
:1036A00005F05CFA00281EDB0097207A1B491C4BB2
:1036B000174A0192022818BF0B461A4A1C99304635
:1036C00005F04CFA002812DA1C9B9842A8BF002093
:1036D00017B0F0BD06AF144A2B464021384605F01E
:1036E0003DFA0028E0DA1C9B9842DDDB002017B091
:1036F000F0BD0E4B024A1846B6E700BFA44B0020AF
:10370000F84101080C42010810420108FC4101087F
:10371000D04C0020583C0108284201083C420108D6
:1037200030420108B83D010808420108A84D0108CF
:10373000132910B511D90B4C84460FCCCCF80000DE
:103740002068CCF810004FF0010ECCF80410CCF833
:103750000820CCF80C30704610BD4FF0000E7046BB
:1037600010BD00BF4842010810B503461446084684
:10377000064A0133214605F0F1F9002804DD8442B0
:10378000D4BF0020012010BD002010BD5C42010804
:1037900010B5034614460846064A0133214605F093
:1037A000DDF9002804DD8442D4BF0020012010BDD3
:1037B000002010BD6442010810B5034614460846B7
:1037C000064A0133214605F0C9F9002804DD844288
:1037D000D4BF0020012010BD002010BD6C420108A4
:1037E00010B5044640B102F0C9FD0146204605F07F
:1037F0006BFAB0FA80F0400910BD00BF836818472B
:1038000010B50446006805F05FFA00280CBF20469A
:10381000002010BD044B1A680AB103487047034AE0
:10382000014812681A60704778000020FC000020F0
:1038300003F066BD03F068BD044B1A680AB1034883
:103840007047034A014812681A6070478C000020D4
:103850000001002008B5042100200BF045FB0430D6
:1038600008BD00BF09B10BF057BA0846704700BF4A
:1038700038B108B50B46184604210BF035FB04306F
:1038800008BD70470A4618B1016810460BF0ACB984
:10389000704700BF30B108B5042100200BF024FBB5
:1038A000043008BD704700BF08B501220B46027006
:1038B000042118460BF018FB043008BD004870477F
:1038C000D40000200B280DDC002809DB0B2807D8CA
:1038D000DFE800F0070606070606060606060707E5
:1038E00001207047CB2818BF01207047034A0346C8
:1038F00092E8030083E80300184670471C3F010864
:1039000010B1006800B11430704700BF00B14068CA
:103910000021704738B143682BB121B103681B6F98
:103920000B60002070470B20704700BF18B1406843
:10393000003818BF0120704710B1006800B128306E
:10394000704700BF2DE9F843064600680023736006
:10395000002849D04769D0F80480D0F8109037B1DA
:10396000143000F0D5F90746002844D13068036BC5
:1039700043B1283002F0C4FF18B1002F3ED0FEF74B
:103980003BFE3068036ADBB1D0E9062C012A7CF1EA
:10399000000111DB0024254653F824004946B8B144
:1039A000C0473368D3E9062C013445F10005944241
:1039B00075EB0C011B6AEFDB18464946C0473068BF
:1039C0004946C0470023C6E900333846BDE8F883BE
:1039D000013445F10005944275EB0C01DCDB18461F
:1039E0004946C0473068EBE707460023C6E9003385
:1039F0003846BDE8F883FEF7FFFDB7E7FFF762FF43
:103A00000746BCE770B110B50446006848B163686A
:103A100033B9FEF777FD18B12046BDE8104091E7B5
:103A20000B2010BD0B2070472DE9F047051E9CB000
:103A30000E4690461F4640F39980002900F0998079
:103A4000A1F1040E4FF0000C5EF8044F0CF1010CD4
:103A5000002C00F08E806545F6D1B8F1000F00F023
:103A60008880D8F80040002C00F083800FCC0DF146
:103A70005C0CACE80F002368CCF8003017A8FEF708
:103A800041FD002875D0002F73D03B68002B75D105
:103A9000DDE91A3278210120984704463860002871
:103AA00000F0A08002A802F09DF802A904F128000D
:103AB000502217ACFCF7F2FB0FCCD7F800E0F4462D
:103AC000ACE80F002368CCF800300EF1140140463A
:103AD00000F048F90446002844D1D7F800904FEA96
:103AE000E578C9F82000C9F81850C9F81C80002DE5
:103AF0004BD0002E49D0DDE91A32042128469847E0
:103B0000C9F82000D7F80090D9F82030CA4643B34E
:103B1000012D78F1000338DB0024043EA1460BE0C0
:103B20003168FCF7BBFB013449F10009C84508BF07
:103B3000A54228D0D7F800A056F8040F05F0A0FA47
:103B4000421C179B1B99DAF820A001921046984757
:103B50003B684AF824001B6A019A53F824000028A5
:103B6000DED10A243846FFF7EDFE03E000293FF4DA
:103B700074AF0B2420461CB0BDE8F08764242046B7
:103B80001CB0BDE8F087D7F800901D490B680133E1
:103B900023D00B601A460024D9F814007B60436AD6
:103BA00082610133C4611FD090F830304BB930309E
:103BB00000F060F904460028D4D1D7F80090D9F875
:103BC000140009F12801183002F000FD0446002815
:103BD000D0D0FFF777FE0446C4E701221C460A60F6
:103BE0001346D9E70A24C5E7243003F08BFC0446CA
:103BF0000028B7D1D7F80090D9F81400D4E700BF57
:103C0000344D0020A8B1036810B5044673B1FFF726
:103C10008DFE40B12068283002F00EFE034658B9F0
:103C20006060184610BD6A23184610BD0B23184665
:103C300010BD0B2318467047BDE81040FFF742BE89
:103C40000020704784B0F0B597B01DAE86E80E0036
:103C5000002858D00368054633B16424204617B0C5
:103C6000BDE8F04004B070473046FEF74BFC00283A
:103C700049D0B446BCE80F0011AC0FC4DCF80030EA
:103C8000236021991D9B50209847044628600028F6
:103C90003BD00DF1440C8646BCE80F00AEE80F00A7
:103CA000DCF80030CEF8003002A801F0ABFF0DF1D7
:103CB000080EBEE80F0004F1180C2F68ACE80F00E6
:103CC000BEE80F00ACE80F00BEE80F00ACE80F0044
:103CD0009EE8030020AC8CE8030094E803008DE824
:103CE000030096E80E0007F1180002F04DFB0446B1
:103CF0000028B3D021991E9B286898472046FFF7DB
:103D0000E1FD0446AAE70B24A8E70A24A6E700BFC2
:103D100030B587B0F0B103680446DBB19C46BCE81F
:103D20000F000DF1040EAEE80F00DCF80030CEF805
:103D3000003001A8FEF7E6FB60B12068183002F001
:103D4000F9FB054650B92068029B0599984728461B
:103D500007B030BD0B25284607B030BDFFF7B2FDD8
:103D60000546F8E72DE9F04194B0002858D0044604
:103D70000068002854D00E46FEF7C4FB00284FD040
:103D8000002E4DD0336823B16424204614B0BDE822
:103D9000F0812768BC46BCE80F000FAD0FC5DCF80A
:103DA0000030D7F800802B6019465020C0470546E8
:103DB0003060D0B30DF13C0C8646BCE80F00AEE895
:103DC0000F00DCF80030CEF80030684601F01AFF32
:103DD000EE46BEE80F0005F1180C24683568ACE823
:103DE0000F00BEE80F00ACE80F00BEE80F00ACE823
:103DF0000F009EE803008CE8030004F1180005F1B1
:103E0000180102F023FB04460028BED0FEF7E4FBB5
:103E1000FEF7F2FB3046FFF77BFF40B10446B4E704
:103E20000B24204614B0BDE8F0810A24ADE72046FB
:103E300014B0BDE8F041FFF745BD00BF30B10368E5
:103E400023B119B15B6A0B60002070470B207047EB
:103E500020B1036813B15962002070470B207047EE
:103E600010B1006800B11830704700BF00B10068A1
:103E7000704700BF10B582B000230193B8B104466B
:103E800001A90C4801F090F810B1012002B010BD5A
:103E9000019B13B11A78312A04D002230020237029
:103EA00002B010BD5B78002BF7D10123F6E70B20A1
:103EB00002B010BD84430108F0B5074687B008463C
:103EC0000D46144605F0DCF801281FD0174E18499E
:103ED000681C2346324601F0C5F8054698B12369AF
:103EE0000093CDE90306134A02924FF4006305974D
:103EF000019394E80F0001F07BF8626821690346A2
:103F000028461D469047284607B0F0BD04F10C0333
:103F100093E803008DE80300384694E80E0001F0B2
:103F200081F90546284607B0F0BD00BF9843010857
:103F30009C43010804420108034A034692E8030037
:103F400083E8030018467047243F01082DE9F04F2D
:103F5000A9B00446DDF8C88023A80E4615461F46C2
:103F600003F096FDB8F1000F00F0E6804046FEF742
:103F7000C9FA002800F0E080002E00F0DD80002D5E
:103F800000F0DA80002C00F0D780D4F80490B9F16A
:103F9000000F40F0FD80002F00F0CE803846FFF784
:103FA000C5FC8246002800F0CD804A4622A9304652
:103FB000CDF8889002F00EF98146002840F0BE80CE
:103FC0002298002840F0F080284605F059F8002893
:103FD00040F0BB807C4D22A90022284602F0DEF88A
:103FE0008146002840F0AA8082462298002840F0AE
:103FF000E080D8F80030D8F8101078209847814633
:104000006060002800F0CA8000220023C9E91A235A
:10401000C9E91C2308A800F09DF908A948466822B0
:10402000FCF73CF961682760404600F0A1F90028E0
:1040300058D1284605F024F8284410F8013CCDE971
:1040400003562F2BD8F8103000930CBF5F4B604BFA
:1040500002934FF40063019398E80F00D4F80490A2
:1040600000F0C6FF2368C9F874001868314628308C
:104070002A46666802F090FD6368B066986E002874
:1040800032D002F01FFE814660B3D8F80030D8F875
:1040900010106668082098476368F066D3F86CB023
:1040A000BBF1000F20D006A803F0C4FB06A803C88C
:1040B0006368C446D3F86CE08BE80300BCE80F00EB
:1040C00023AE0FC6DCF80030336028AB13E90F00D5
:1040D0008DE80F004946239B3A46704603F052FC98
:1040E000814628B36368F3B1586F28B1D8F804301B
:1040F000D8F8101098476368986E10B102F064FD0C
:104100006368D86E48B103F09DFC6368D8F810105E
:10411000D86ED8F8043098476368D8F8101018465D
:10412000D8F8043098470023C4E900334FF0010960
:10413000BAF1000F25D101E04FF00B09484629B034
:10414000BDE8F08F4FF06509F8E72B782F2B3FF48F
:1041500042AF0395D8F8103000931E4B02934FF4F2
:104160000063019398E80F0000F042FF054640B35A
:10417000002222A9229202F011F8814600283FF481
:1041800034AFD8F80430D8F8101028469847D5E74F
:104190004FF06409484629B0BDE8F08F4FF00A0996
:1041A000BAF1000FEDD1C9E702F0B2F84FF0C9093A
:1041B000C4E702F003F84FF0CA09BAF1000FE0D1EA
:1041C000BCE74FF00A09B9E79C43010828420108FF
:1041D000A4430108A0430108F8B520B3456804468C
:1041E000FDB1A86E6F682E6902F0EEFC63680546AB
:1041F000D86E03F027FC55EA000363683146D86E99
:1042000014BF01250025B84763683146186FB847C9
:1042100063683146586FB84760683146B847002335
:1042200063602846F8BDC8252846F8BD28B1406817
:1042300018B1806E003818BF0120704730B1436854
:1042400023B19B6E13B10068FFF770BB002070476D
:1042500020B1406810B1806E00B18068704700BF27
:1042600020B1406810B1806E00B1C068704700BFD7
:1042700030B1406820B1836E0BB1406F7047184673
:10428000704700BF28B1406818B1836E002B08BF8B
:1042900000207047A8B138B5436804466BB19B6EE7
:1042A0005BB100680D46FFF741FB30B13DB12068BE
:1042B0002946BDE83840FFF72DBBC82038BD0B208C
:1042C00038BDC820704700BF10B1406800B1806E93
:1042D000704700BF30B1436823B19B6E13B10068D3
:1042E000FFF714BB00200021704700BF30B14068C9
:1042F00020B1836E0BB1C06E70471846704700BF87
:1043000030B1406820B1836E0BB1006F7047184622
:10431000704700BF10B582B000230193A0B10446DE
:1043200001A90B4800F040FE10B1012002B010BD01
:10433000019A1378313B08BF5378B3FA83F35B09D2
:104340000020237002B010BD0B2002B010BD00BFD2
:10435000AC43010810B5682204460021FCF738F888
:104360002046FEF7C1F801232375204610BD00BF8B
:10437000D0B170B50C46A9B18842844612D005462A
:10438000868A8E460FCDAEE80F002B68CEF800303F
:104390000CF118015022A68204F11800FBF77EFFF1
:1043A000002070BD0B2070BD0B207047C0B100B560
:1043B0008446BCE80F0087B00DF1040EAEE80F0094
:1043C000DCF80030CEF8003001A8FEF79BF818B1F9
:1043D000002007B05DF804FB0B2007B05DF804FB7C
:1043E0000B20704782B02DE9F04F91B01AAC84E8F1
:1043F0000C009DF87C8000283BD00C460546FFF75A
:1044000041FF002837D02846FFF722FF06462846FE
:10441000FFF726FF0DF1680E8146BEE80F000BADD9
:10442000AC46ACE80F00DEF80030CCF80030219B41
:10443000FBB18A46DDF878B000F032FF10AB08908F
:1044400013E907008DE80700002195E80C0008A893
:1044500000F0B6FF074680B1FEF7BEF8FEF7CCF8D5
:104460000A2F18BF0127384611B0BDE8F04F02B03F
:1044700070470B27F7E70127F5E70990079008A891
:1044800003F0D2F90746A8B10A28079C00D00127FB
:1044900008A800F0D5FF00283DD109985946D0471B
:1044A00059462046D047B8F1000FDCD0672F08BF2F
:1044B0006827D8E709AB05930FCDEC46ACE80F00B1
:1044C0002B68CCF800304A463146204608AB03F052
:1044D0004DF80746B8B9099C099002460AA920463A
:1044E00001F012FD88B90A9DD5B9219B08A81C606E
:1044F00000F0A6FF0746A8B1FEF76EF82C46FEF7BF
:104500007BF80127C9E7079CC2E7FEF765F801279A
:10451000FEF772F8BCE7FEF75FF8FEF76DF8BCE750
:104520006727B5E709985946D04759463846D047D6
:1045300099E700BF2DE9F84FD0F808C00B78BCF11F
:10454000000F5BD0023BDBB2012B0D4606469346C3
:104550004FF0000418D840E0D3E90491B9F1010FFD
:1045600071F100070DDBAF684F45EF6877EB010194
:1045700007DB52F830801A6A59462846C047D6F8F9
:1045800008C00134A44539D9726804EB840002EBF9
:10459000C003D3E906910029DEDAAF68B945EF68B8
:1045A000B941E6DAD8E7D3E906A2002A20DBD3E94D
:1045B00004A2BAF1010F72F100070CDBAF68574596
:1045C000EF6877EB020206DB50F838801A6A28465B
:1045D000C047D6F808C0644510D2706804EB840860
:1045E00000EBC80301341A7A5946002AECD1DAE705
:1045F000AF68BA45EF68BA41E6DAD8E7BDE8F88FA8
:10460000084601F075BA00BF084601F099BA00BF2C
:10461000037A10B50C4633B1052100F0D1FBC4E993
:104620000001002010BDBDE81040084601F060BA4E
:10463000A0B1037893B1C36883B100B583B00069BA
:104640006946984760B9DDE90023012A73F1000348
:10465000ACBF0120002003B05DF804FB00207047D0
:10466000002003B05DF804FB38B1037823B1C068C3
:10467000003818BF0120704718467047F8B5054646
:10468000104614460E46FDF73DFF28B1032D03D812
:10469000DFE805F01D2E53064FF00B0C6046F8BD09
:1046A000002EF9D0002CF7D00023C6E90133DFF843
:1046B000B4E0336106F114059C4603270FCC0FC507
:1046C00023682B603770C6F80CE06046F8BD002EFA
:1046D000E2D000233370C6E90133C6E903339C46B8
:1046E0000FCC06F114050FC523682B606046F8BD9A
:1046F000002ED1D0002CCFD000273770A446BCE8C4
:104700000F0006F11405C6E90177C6E903770FC566
:10471000DCF800302B602169236810209847306155
:10472000D0B100220023C0E90023012307720C4A04
:104730003370BC46F2606046F8BD002EACD0002C51
:10474000AAD00023C6E90133DFF81CE0336106F18B
:1047500014059C460227B1E74FF00A0C9EE700BF04
:1047600011460008094600080146000800282CD020
:1047700038B504461430FDF7C5FE40B12378022B4E
:1047800007D0032B05D0012B0FD00B2038BD012003
:1047900038BDA0680028F9D000256068A369616A67
:1047A000A56098476560284638BDA36833B10025E9
:1047B000A369616A6068A560984765602069A3691C
:1047C000616A98470020206138BD0B20704700BF08
:1047D00028B370B50E4621B3002505708E46C0E99A
:1047E0000155C0E90355044600F1140CBEE80F0062
:1047F000ACE80F00DEF80030CCF8003031693368E7
:1048000010209847206170B100220023C0E90023E6
:1048100001230572054A23702846E26070BD0B2013
:1048200070470B2070BD0A2070BD00BF1146000804
:10483000B0B138B50378012B04460FD1836833B18A
:1048400000258369416A4068A560984765602069D2
:10485000A369616A98470020206138BD012038BDF6
:104860000B207047F0B5B0B1A9B100258C46C0E966
:1048700001550561864600F11404BCE80F000FC421
:104880000326DCF800302360044F8EF80060CEF879
:104890000C702846F0BD0B252846F0BD09460008DF
:1048A00088B138B50378032B04460AD1806838B143
:1048B00000256068A369616AA5609847656028461D
:1048C00038BD012038BD0B20704700BFF0B5B0B136
:1048D000A9B100258C46C0E901550561864600F165
:1048E0001404BCE80F000FC40226DCF8003023607B
:1048F000044F8EF80060CEF80C702846F0BD0B25F2
:104900002846F0BD0146000888B138B50378022B6F
:1049100004460AD1806838B100256068A369616ADD
:10492000A56098476560284638BD012038BD0B203A
:10493000704700BFB0B1A9B1A2B190F808C00B7A1E
:104940009C4501D001207047D1E9003110B40468C2
:104950001B1B446861EB04010020C2E900315DF8D3
:10496000044B70470B20704740B139B103781BB13D
:10497000C3680BB100691847012070470B207047CE
:1049800000285BD02DE9F04304460078012885B06B
:1049900007D1266916B1357A3DB1002005B0BDE8D2
:1049A000F083012005B0BDE8F08300230022D4F895
:1049B00008E0CDE9022302238DF80030E946BEF17C
:1049C000000F09D128E052F830801A6A4846C047E3
:1049D000D4F808E075451FD2626805EB850002EB4C
:1049E000C003013593F808C00121BCF1000FEAD1E2
:1049F000D3E9068CBCF1000F19DBD3E9048CB8F1C4
:104A0000010F7CF10007E5DB029F4745039F77EB31
:104A10000C07D8DA7545DFD3012320463372002214
:104A20004946FFF787FD002005B0BDE8F083029FEF
:104A3000B845039F7CEB0707C5DADEE70B2070471C
:104A4000002855D02DE9F04704460078012884B0AD
:104A500006D126690EB1307A30B904B0BDE8F087CE
:104A6000012004B0BDE8F08700230022A068CDE952
:104A7000022303238DF8003000283BD00025E946AF
:104A800007E048465CF83E801A6AC047A068854245
:104A90001DD2D4F804C005EB850E0CEBCE03013516
:104AA0001A7A0121002AECD1D3E906A2002A19DBE7
:104AB000D3E904A2BAF1010F72F10007E7DB029F0C
:104AC0005745039F77EB0202DBDA8542E1D30025ED
:104AD000204635722A464946FFF72CFD284604B089
:104AE000BDE8F087029FBA45039FBA41C9DADFE704
:104AF0000B207047E946EAE758B151B10378012B22
:104B000005D102691AB1137A0B7000207047012099
:104B100070470B20704700BF00283ED02DE9F043BE
:104B20000678012E87B0044603D0012007B0BDE807
:104B3000F083D0F81090B9F1000F30D099F80850F8
:104B400015B34846052190461F468DF8086000F0D1
:104B500037F9B8EB000067EB01010490059132468C
:104B600002A92046FFF7E6FC052142463B4648469F
:104B7000009100F05BF92046002202A9FFF7DAFC61
:104B8000002007B0BDE8F08305214846009100F001
:104B90004DF9284607B0BDE8F0830B20704730463A
:104BA000C4E700BF82B02DE9F04106A981E80C00FE
:104BB000DDE90C6520B304461430FDF7A3FCF8B121
:104BC000F6B1099B002B1BDBDDE90A23012A73F1F7
:104BD000000315DAD4E90107002F42D00023024672
:104BE00003E0BB4202F1280211D01168B14203F187
:104BF0000103F6D1116AA942F3D14FF0010E01E091
:104C00004FF00B0E7046BDE8F04102B07047013323
:104C100003EB8303D900E369626A9847F0B1A368A4
:104C2000606003EB83020DF1180C40F8326003F171
:104C3000010800EBC206BCE80F0006F108070FC729
:104C40009CE803004FF0000E87E8030035627046D1
:104C5000C4F80880BDE8F04102B070474FF00A0E7A
:104C6000D0E72821D7E700BF002857D02DE9F0472B
:104C70000546143088469246FDF744FC00283BD098
:104C8000B8F1000F38D0AE6866B1D5F8049006EBE5
:104C9000860709EBC7074C462368434505D02834EF
:104CA000A742F9D10120BDE8F087236A2834BC422D
:104CB0002DD05345F0D1A646BEE80F00A4F1280C34
:104CC000ACE80F00BEE80F00ACE80F009EE8030060
:104CD0002834A7428CE80300EDD1013EAE6076B1E6
:104CE00006EB8606EB696A6AF10048469847B8B158
:104CF00068600020BDE8F0870B20BDE8F0874846DB
:104D0000AB69696A98476E603046BDE8F0875345E5
:104D1000C8D1013EAE60002EE2D1F0E70B20704713
:104D20000A20EAE780EA104383F03D03104A114964
:104D300003EBC30383EA131302FB03F383EAD333C6
:104D4000A1FB0321090901EB4100C1EBC0010A4AA3
:104D50005B1A1A444FF00101D2E84F3FC2E8401FEE
:104D60000028F9D1BFF35B8FDBB2002BF4D1704781
:104D70002DEBD427C94216B2384D002080EA1043EB
:104D800083F03D030B490C4ABFF35B8F03EBC30376
:104D900083EA131301FB03F383EAD333A2FB031269
:104DA000120902EB4201C2EBC1029B1A0349002225
:104DB000CA5470472DEBD427C94216B2384D002093
:104DC00080EA104181F03D01154A164B01EBC1010B
:104DD00081EA111102FB01F181EAD131A3FB012328
:104DE0001B0903EB4302C3EBC203D0B40E4CC91A38
:104DF00062184FF0010CD2E84F3FC2E846CF002EB8
:104E0000F9D1BFF35B8FDBB2002BF4D1D0E900679F
:104E1000BFF35B8F635430463946D0BC704700BF48
:104E20002DEBD427C94216B2384D002080EA10413C
:104E300081F03D0170B501EBC101144C144D81EAC4
:104E4000111104FB01F1134C81EAD131A4FB014E95
:104E50004FEA1E1E0EEB4E04CEEBC40EA1EB0E0E5F
:104E600005EB0E0C4FF00104DCE84F1FCCE8464F79
:104E7000002EF9D1BFF35B8FC9B20029F4D1C0E98C
:104E80000023BFF35B8F05F80E1070BD2DEBD42708
:104E9000384D0020C94216B280EA104C8CF03D0C0F
:104EA00016490CEBCC0C8CEA1C1C01FB0CFC1449C5
:104EB0008CEADC3C70B50546A1FB0C01090901EB4D
:104EC0004100C1EBC0010F4EACEB010C06EB0C0135
:104ED0004FF0010ED1E84F4FC1E840EF0028F9D163
:104EE000BFF35B8FE4B2002CF4D1D5E90001C5E932
:104EF0000023BFF35B8F06F80C4070BD2DEBD42769
:104F0000C94216B2384D002080EA104C8CF03D0C9E
:104F10001A490CEBCC0C8CEA1C1C01FB0CFC18494C
:104F20008CEADC3C70B58646A1FB0C01090901EB5B
:104F30004100C1EBC001134DACEB010C05EB0C01C2
:104F40004FF00100D1E84F4FC1E8460F002EF9D1D4
:104F5000BFF35B8FE4B2002CF4D1DEF80000DEF882
:104F60000410821841EB0303CEF80020CEF8043081
:104F7000BFF35B8F05F80C4070BD00BF2DEBD4274D
:104F8000C94216B2384D002008B530B131B1012206
:104F900003F0A0FCB0FA80F0400908BD03F0A8FCC3
:104FA000B0FA80F0400908BD68B110B50C4629B1CF
:104FB00003F090FB20B12060002010BD034810BD1D
:104FC000034B236010BD0348704700BFE443010852
:104FD000A84D0108C843010808B5044803F07AFB4E
:104FE00018B10378002B08BF002008BD0044010859
:104FF0000FB4F0B583B008AC0E9E84E80F004EB33A
:1050000008A8FDF77FFA28B300210FAB3246084607
:10501000CDE9003300F0F4F8431C05461AD00D9B8F
:105020000C99471C9F4284BF1F4603F1FF35384649
:10503000089B9847044668B1019B3246394600F008
:10504000DFF8002802DB0023635504E0099B0C997C
:10505000204698470024204603B0BDE8F04004B045
:10506000704700BF2DE9F04F2DED028B87B08046D1
:105070000846CDF8048008EE102A8A46994603F0C7
:10508000FFFF002647460290B3461025B0461DE0BC
:105090000BF1010B5E4511D22E44D9F80830D9F836
:1050A0001020B1009847002800F0888005EB4505E6
:1050B000B5F5801F804628BF4FF48015019A08EB94
:1050C0008B03A21A43F8042C029BE718514638467A
:1050D00004F0DEF904464046002CD9D1B846074614
:1050E000404603F0CDFF019BA8EB03031C1804947A
:1050F000BBF1000F4AD018EE100A03F0C1FF029B6B
:10510000D9F81010C31A0BFB03431A460593064641
:10511000D9F80030501C9847039000284FD0DDF894
:1051200004803A684146FBF7B9F83D68039B019754
:10513000BA461D44029FCDF808900124D14618EECE
:1051400010AA0AE0D9F80050AA1A8518FBF7A6F8A9
:10515000A34504F1010235D914463246514628468A
:10516000FBF79CF859F8042BA3453A4405EB0600DD
:1051700008EB0201E6D1049B9A1ADDE90179FBF7FD
:105180008DF8039A0599002353540BE02046D9F873
:105190000030D9F8101001309847039010B10199F0
:1051A00003F0FCFE3846D9F80430D9F810109847BF
:1051B000039807B0BDEC028BBDE8F08F4746002393
:1051C0000393EFE7DDE90179DBE700BF0CB430B50D
:1051D00083B006AB53F8042B019352B138B141B1FF
:1051E00004F0C2FA03B0BDE8304002B070470029B5
:1051F000F6D0FBF729F8162303604FF0FF30F1E7F4
:1052000070B53AB120B129B1BDE8704004F0ACBA34
:105210000029F9D0FBF718F8162303604FF0FF3090
:1052200070BD00BF84B070B582B007AC84E80E00DA
:105230000546B0B103F024FF421C079B0B99019275
:10524000064610469847044628B1019A2946FBF7BE
:1052500025F80023A355204602B0BDE8704004B0F5
:1052600070470446F7E700BF82B0F8B506AC84E8A3
:105270000C00054688B14F1C0E4638460A999047E7
:10528000044628B13A462946FBF708F80023A355FF
:105290002046BDE8F84002B070470446F8E700BF7A
:1052A000014B002018607047504D002030B103685A
:1052B00033B119B19B680B60002070470B20704719
:1052C0001F20704730B1036833B119B1DB680B6040
:1052D000002070470B2070471F20704700285FD0C8
:1052E0002DE9F0410C46016882B0054629B1CB6832
:1052F000A34206D91C460029F9D11F2002B0BDE8FF
:10530000F0818B68A34247D00E6A002C34D0B4F1F0
:10531000804F43D2A700D1F818800868324639463A
:10532000C04700283AD02B68324618603946586882
:10533000C047002832D02D68AB686860A34226D2EF
:105340002A6800EB070C02EB830EE6454FEA830167
:1053500000EB830603D202EB070C664522D3E31A67
:105360009A00704600210192FBF732F8019A002161
:105370003046FBF72DF80AE04F6908683146B84718
:105380002B68314658681C60B8472D686C60002057
:10539000AC6002B0BDE8F0810020AFE70A20ADE7C5
:1053A0000B2070470B1F18441344043A1744002283
:1053B00043F8042FBB4240F8042FF9D1E7E700BFC0
:1053C00082B070B504AC84E80C0080B30668044673
:1053D0002EB11E252846BDE8704002B0704704A8D3
:1053E0000D46FDF78FF810B3049B089924209847C9
:1053F000206010B30DF1100EC0E90066C0E902662E
:1054000000F1100CBEE80F00ACE80F00DEF8003031
:10541000CCF8003029462046FFF760FF05460028FB
:10542000D8D0059B0899206898472660D2E70B25BD
:105430002846BDE8704002B070470A25CAE700BFA1
:105440002DE9F04182B000283AD004680646002CCD
:1054500032D0A3682BB3002522682F4652F82500CE
:10546000E0B1216AD4F814800191C047D4E9002347
:1054700042F82570019953F82500C047E368626837
:10548000013B42F82570E3603468A36801359D4212
:1054900007D2226852F825000028E2D101359D424A
:1054A000DCD300213046FFF719FF044620B93068ED
:1054B0004369016A98473460204602B0BDE8F08134
:1054C0000B24204602B0BDE8F08100BF002831D097
:1054D0002DE9F041056882B006466DB3AB682BB389
:1054E00000242A68274652F82400E0B1296AD5F83A
:1054F00014800191C047D5E9002342F82470019936
:1055000053F82400C047EB686A68013B42F82470F6
:10551000EB603568AB6801349C4207D22A6852F8C8
:1055200024000028E2D101349C42DCD3002002B0E8
:10553000BDE8F0810B2070471F20F8E72DE9F04F00
:105540008FB0CDE9030200287DD0D0F800B0BBF1C8
:10555000000F00F0A1800F46002974D0002A72D0FD
:10556000DBF8143006930BF11005DBF820300793BD
:105570000FCD09AC0FC42B682360384603F080FDC3
:10558000DBF808A0DBF8003005938046BAF1000F85
:1055900000F086801E1F002456F8045F4FEA84093D
:1055A000284601345DB103F06BFD404502462946B3
:1055B00038BF4246384603F0D1FD002848D0A24506
:1055C000EAD1DBF80C2052457CD00599002201E09D
:1055D00052455CD00D4651F8043B94000132002B3B
:1055E000F6D10CAE96E803008DE8030009AB0ECBB4
:1055F0003846FFF717FE039B28601B681A6812598C
:10560000002A4BD096E803005B681D598DE8030023
:1056100009AB0ECB0498FFF705FE0646002845D0DF
:10562000039B1B685A6810512DB1069B07992846A9
:105630009847039B1B68DA6801320025DA60284628
:105640000FB0BDE8F08F0B2528460FB0BDE8F08FF6
:10565000DBF8043053F809400EAB054613E90300AC
:105660008DE8030009AB0ECB0498FFF7DBFDA8B172
:10567000039B1B685B6843F80900002CDFD02046C1
:105680000799069B984728460FB0BDE8F08F059B09
:10569000940003EB8205A4E71F25D0E70A25CEE797
:1056A000DBF80C2072B11D4654469AE7039D07991A
:1056B0002B681B681859069B98472B681B680A259E
:1056C0001E51BCE70C25BAE700B3036870B5044669
:1056D000F3B10E4631B1154622B1FFF72FFF0C286A
:1056E00002D070BD0B2070BDFCF786FF236899685F
:1056F00081B149002046FFF7F1FD0028F1D12A468B
:1057000031462046BDE87040FFF718BF0B207047B8
:105710001F2070BD0121EDE72DE9F04F83B0002877
:105720004DD0D0F800B0BBF1000F4DD00F4600298E
:1057300045D0084603F0A4FCDBF80890DBF8003005
:105740000190B9F1000F17D0A3F1040A00245AF810
:10575000045F4FEA8408284601345DB103F090FCF1
:10576000019A824238BF02462946384603F0F6FCC9
:10577000064630B1A145EAD12026304603B0BDE847
:10578000F08FDBF82010DBF8144001912846A04789
:10579000DBF80030019943F80860DBF8043053F877
:1057A0000800A047DBF80C30DBF80420013B304652
:1057B00042F80860CBF80C3003B0BDE8F08F0B2640
:1057C000304603B0BDE8F08F1F26D6E72DE9F84339
:1057D0000E4601B300B30068F0B1D0F80880076846
:1057E000B8F1000F17D0084603F04AFC043F814689
:1057F000002557F8044F0135204654B103F040FC12
:1058000048450246214638BF4A46304603F0A6FCCA
:1058100020B1A845EDD10020BDE8F8830120BDE806
:10582000F88300BF30B3006820B32DE9F8430F467A
:10583000D1B1D0F808900668B9F1000F14D09046A5
:10584000043E002556F8044F0135204654B103F0BC
:1058500017FC40450246214638BF4246384603F011
:105860007DFC20B1A945EDD10020BDE8F8830120E1
:10587000BDE8F883704700BF2DE9F84F884611B3A3
:1058800008B3076807B3D7F808903E68B9F1000F6E
:1058900019D0084603F0F4FB043E8246002456F873
:1058A000045F4FEA840B2846013455B103F0E8FB4E
:1058B00050450246294638BF5246404603F04EFC4A
:1058C00028B1A145EBD100273846BDE8F88F7B68A9
:1058D00053F80B703846BDE8F88F00BF2DE9F84F3C
:1058E00000B30768FFB18846E1B1D7F808A03E6869
:1058F000BAF1000F16D09146043E002456F8045F1A
:105900004FEA840B2846013455B103F0B9FB4845F2
:105910000246294638BF4A46404603F01FFC28B1DC
:10592000A245EBD100273846BDE8F88F7B6853F8D5
:105930000B703846BDE8F88F68B3006858B3C36889
:1059400053B370B5846821B344B303680025A3F151
:10595000040C01222B4600E072465CF8046F8E4274
:1059600004BF13460125A24202F1010EF4D3ADB1EA
:10597000A34213D2026803F18041013902EB810294
:1059800001E0A34204D052F8040F01330028F8D0FC
:1059900070BD0B46ECE7704718467047002070BD9D
:1059A0002DE9F04F83B00190002800F09E808A46D8
:1059B000002900F09A80D0F80090B9F1000F39D09A
:1059C0000B68BBB3D9F80C3083B3D9F808606EB359
:1059D000D9F80040043C2246002301E0B34225D020
:1059E00052F8045F0133002DF8D0284603F048FB3D
:1059F00027468046CDF80090B946002759F8044F55
:105A00004FEA870B2046013754B103F039FB40457C
:105A10000246214638BF4246284603F09FFB58B154
:105A2000B742EBD1022003B0BDE8F08F002003B0F5
:105A3000BDE8F08F1F20FAE7009B5B6853F80B402E
:105A4000002CEFD0DAF80030002BF3D022462946A4
:105A50005046FFF773FD0C2833D00028E7D1019B97
:105A60001A680092002AE1D0D368002BDED0966835
:105A7000002EDBD011680F1FBC460122034600E058
:105A800072465CF8044FAC4204BF13460120B24298
:105A900002F1010EF4D30028C8D0B342C6D203F1FC
:105AA0008042013A01EB820201E0B342BED052F8DB
:105AB000045F0133002DF8D0284603F0E1FA804658
:105AC0009AE7FCF799FDDAF80030996859B1490076
:105AD0005046FFF703FC0028A9D12246294650462C
:105AE000FFF72CFDB9E70121F2E70B209FE700BF8C
:105AF00008B370B584B004466946012008F048F93F
:105B0000DDE90035002D13DB029900290DDB0B4E7A
